:1000000003030303030303030303030303030303c0
:1000100003030303030303030303030303030302b1
:1000200001010101010101010101010103030101bc
:1000300001010101010101010101020303010303a7
:100040000303030103030303030103030103030386
:10005000030301030303030301030301030000007f
:100060000301030000000301030301030000000378
:10007000010300000003010303010300000003016a
:100080000300000003010303010300000003010358
:10009000000000030103030103030303030103033f
:1000a0000303030103030103030303030103030326
:1000b0000303010303010101010101010101010128
:1000c0000101010101010101010101010101010120
:1000d00001030301030303030301030103030303f8
:1000e00003030303030301030103030303030103e6
:1000f00003010303030303010301030303030303d6
:1001000003030303010301030303030301030301c7
:1001100001010101010103010101010103030101c9
:1001200001010103010101010101010303030303b3
:100130000303030103030303030103030103030395
:100140000303010303030303030300000000000093
:100150000301030101010301030301030101010381
:100160000103000000000000000000000000030187
:100170000301030101010101010101030103010365
:100180000000000000000000000000000301030167
:10019000030103030404030301030103010300003b
:1001a000000000000000000303030301030103013a
:1001b000030005000003010301030103030303001f
:1001c000000000000000070000010101030103031b
:1001d0000303030301030101010000070000000005
:1001e00000000003030303010301030101010601f1
:1001f00001010103010301030303030000000000e8
:1002000000000000030103010301030303030303d0
:1002100001030103010300000000000000000000d2
:1002200000000301030101010101010101010101bc
:1002300001030103000000000000000000000000b6
:100240000301030103030303030303030303010384
:100250000103000000000000030303030303030184
:100260000301030303030303030303030103010364
:100270000303030303030301010101010101010160
:10028000010101010303010101010101010101015a
:100290000101010303010303030303010303030338
:1002a0000301030301030303030301030303030324
:1002b0000103030201010103030101010101010125
:1002c0000101010101010101010303010101020317
:1002d00003030303010303010301030303030303f4
:1002e00003030303010301030301030303030303e4
:1002f00003030103030103010303030303030303d4
:1003000003030103010303010303030303010101c9
:1003100001010101030101010101030301010101c7
:1003200001030101010101010103030103030303af
:100330000303030303030301030301030303030391
:10034000030303030303010303010101010101018d
:10035000010101010101010101010101010101018d
:100360000101010101030303030303030303030367
:10037000030303030303030303030303030303034d
:04038000030303036d
:00000001ff
