:1000000000000000000000000000000000000000f0
:1000100000000000000000000000000000000000e0
:1000200000000000000001010101000000000000cc
:1000300000000000000001010101000000000000bc
:1000400000000000000003010103000000000000a8
:100050000000030000000301010300000003000092
:10006000000103030303030101030303030301006e
:100070000001010303030101010103030301010066
:100080000101010101010101010101010101010160
:100090000101010101010101010101010101010150
:1000a0000101010101010101010101010101010140
:1000b0000101010101010101010101010101010130
:1000c0000101010100000101010100000101010124
:1000d000000101000000000101000000000101001a
:1000e0000000000000000000000000000000000010
:1000f0000000000000000000000000000000000000
:1001000000000000000000000000000000000000ef
:1001100000000000000000000000000000000000df
:1001200000000000000001010101000000000000cb
:1001300000000000010101010101010100000000b7
:1001400000000001010101010101010101000000a5
:100150000000010101010101010101010101000093
:100160000001010303030101010103030301010075
:10017000000103030303030101030303030301005d
:10018000010103030303030101030303030301014b
:10019000010103000000030101030000000301014d
:1001a0000101010000000101010100000001010145
:1001b000010101010101010101010101010101012f
:1001c0000101010100000101010100000101010123
:1001d0000001010000000001010000000001010019
:1001e000000000000000000000000000000000000f
:1001f00000000000000000000000000000000000ff
:1002000000000000000000000000000000000000ee
:1002100000000000000000000000000000000000de
:1002200000000000000001010100000000000000cb
:1002300000000000010101010101010100000000b6
:1002400000000001010101010101010101000000a4
:100250000000030303010101010303030101000086
:10026000000303030303010103030303030101006c
:100270000000000303030101000003030301010068
:100280000100000303030101000003030301010156
:100290000101030303010101010303030101010142
:1002a000010101010101010101010101010101013e
:1002b000010101010101010101010101010101012e
:1002c0000101010100000101010100000101010122
:1002d0000001010000000001010000000001010018
:1002e000000000000000000000000000000000000e
:1002f00000000000000000000000000000000000fe
:1003000000000000000000000000000000000000ed
:1003100000000000000000000000000000000000dd
:1003200000000000000000010101000000000000ca
:1003300000000000010101010101010100000000b5
:1003400000000001010101010101010101000000a3
:100350000000010103030301010101030303000085
:10036000000101030303030301010303030303006b
:100370000001010303030000010103030300000067
:100380000101010303030000010103030300000155
:100390000101010103030301010101030303010141
:1003a000010101010101010101010101010101013d
:1003b000010101010101010101010101010101012d
:1003c0000101010100000101010100000101010121
:1003d0000001010000000001010000000001010017
:1003e000000000000000000000000000000000000d
:1003f00000000000000000000000000000000000fd
:00000001ff
