:1000000000000000000000000000000000000000f0
:1000100000010101010100000001000000010000d9
:1000200000010000000100000001010101010000c9
:1000300000010000000100000000000000000000be
:1000400000000000000000000000000000000000b0
:100050000001010101010000000100000001000099
:10006000000101010100000000010000000100008a
:10007000000101010101000000000000000000007b
:100080000000000000000000000000000000000070
:10009000000101010101000000010000000000005a
:1000a000000100000000000000010000000000004e
:1000b000000101010101000000000000000000003b
:1000c0000000000000000000000000000000000030
:1000d000000101010100000000010000000100001a
:1000e000000100000001000000010000000100000c
:1000f00000010101010000000000000000000000fc
:1001000000000000000000000000000000000000ef
:1001100000010101010100000001000000000000d9
:1001200000010101000000000001000000000000cb
:1001300000010101010100000000000000000000ba
:1001400000000000000000000000000000000000af
:100150000001010101010000000100000000000099
:10016000000101010000000000010000000000008b
:10017000000100000000000000000000000000007e
:10018000000000000000000000000000000000006f
:100190000001010101010000000100000000000059
:1001a000000100000101000000010000000100004a
:1001b000000101010101000000000000000000003a
:1001c000000000000000000000000000000000002f
:1001d000000100000001000000010000000100001b
:1001e0000001010101010000000100000001000008
:1001f00000010000000100000000000000000000fd
:1002000000000000000000000000000000000000ee
:1002100000010000000000000001000000000000dc
:1002200000010000000000000001000000000000cc
:1002300000010000000000000000000000000000bd
:1002400000000000000000000000000000000000ae
:10025000000000000001000000000000000100009c
:10026000000000000001000000010000000100008b
:100270000001010101010000000000000000000079
:10028000000000000000000000000000000000006e
:10029000000100000001000000010000000100005a
:1002a0000001010101000000000100000001000048
:1002b000000100000001000000000000000000003c
:1002c000000000000000000000000000000000002e
:1002d000000100000000000000010000000000001c
:1002e000000100000000000000010000000000000c
:1002f00000010101010100000000000000000000f9
:1003000000000000000000000000000000000000ed
:1003100000010100010100000001000100010000d6
:1003200000010001000100000001000000010000c8
:1003300000010000000100000000000000000000bb
:1003400000000000000000000000000000000000ad
:100350000001010101000000000100000001000097
:100360000001000000010000000100000001000089
:10037000000100000001000000000000000000007b
:10038000000000000000000000000000000000006d
:100390000001010101010000000100000001000056
:1003a0000001000000010000000100000001000049
:1003b0000001010101010000000000000000000038
:1003c000000000000000000000000000000000002d
:1003d0000001010101010000000100000001000016
:1003e0000001000000010000000101010101000006
:1003f00000010000000000000000000000000000fc
:1004000000000000000000000000000000000000ec
:1004100000010101010100000001000000010000d5
:1004200000010000000100000001000001000000c8
:1004300000010101000100000000000000000000b8
:1004400000000000000000000000000000000000ac
:100450000001010101010000000100000001000095
:100460000001000000010000000101010100000086
:10047000000100000001000000000000000000007a
:10048000000000000000000000000000000000006c
:100490000001010101010000000100000000000056
:1004a0000001010101010000000000000001000046
:1004b0000001010101010000000000000000000037
:1004c000000000000000000000000000000000002c
:1004d0000001010101010000000000010000000016
:1004e000000000010000000000000001000000000a
:1004f00000000001000000000000000000000000fb
:1005000000000000000000000000000000000000eb
:1005100000010000000100000001000000010000d7
:1005200000010000000100000001000000010000c7
:1005300000010101010100000000000000000000b6
:1005400000000000000000000000000000000000ab
:100550000001000000010000000100000001000097
:100560000001000000010000000100000100000087
:100570000001010100000000000000000000000078
:10058000000000000000000000000000000000006b
:100590000001000000010000000100000001000057
:1005a0000001000100010000000100010001000045
:1005b0000001010101010000000000000000000036
:1005c000000000000000000000000000000000002b
:1005d0000001000000010000000100000001000017
:1005e0000000010101000000000100000001000006
:1005f00000010000000100000000000000000000f9
:1006000000000000000000000000000000000000ea
:1006100000010000000100000001000000010000d6
:1006200000010000000100000001010101010000c3
:1006300000000001000000000000000000000000b9
:1006400000000000000000000000000000000000aa
:100650000001010101010000000000000001000094
:100660000000010101000000000100000000000086
:100670000001010101010000000000000000000075
:10068000000000000000000000000000000000006a
:100690000000010101000000000100000001000055
:1006a0000001000000010000000100000001000046
:1006b0000000010101000000000000000000000037
:1006c000000000000000000000000000000000002a
:1006d0000001010000000000000001000000000017
:1006e0000000010000000000000001000000000008
:1006f00000000100000000000000000000000000f9
:1007000000000000000000000000000000000000e9
:1007100000010101010000000000000000010000d4
:1007200000000101010000000001000000000000c5
:1007300000010101010100000000000000000000b4
:1007400000000000000000000000000000000000a9
:100750000001010101010000000000000001000093
:100760000000000101010000000000000001000085
:100770000001010101010000000000000000000074
:100780000000000000000000000000000000000069
:100790000001000000010000000100000001000055
:1007a0000001010101010000000000000001000043
:1007b0000000000000010000000000000000000038
:1007c0000000000000000000000000000000000029
:1007d0000001010101010000000100000000000013
:1007e0000001010101000000000000000001000004
:1007f00000010101010000000000000000000000f5
:1008000000000000000000000000000000000000e8
:1008100000010101010100000001000000000000d2
:1008200000010101010100000001000000010000c1
:1008300000010101010100000000000000000000b3
:1008400000000000000000000000000000000000a8
:100850000001010101010000000000000001000092
:100860000000000000010000000000000001000086
:100870000000000000010000000000000000000077
:100880000000000000000000000000000000000068
:100890000001010101010000000100000001000051
:1008a0000001010101010000000100000001000041
:1008b0000001010101010000000000000000000033
:1008c0000000000000000000000000000000000028
:1008d0000001010101010000000100000001000011
:1008e0000001010101010000000000000001000002
:1008f00000000000000100000000000000000000f7
:00000001ff
